:020000040800F2
:10000000000002207D2500088D0C00088F0C0008E0
:10001000910C0008930C0008950C000800000000EB
:10002000000000000000000000000000970C000825
:10003000990C0008000000009B0C00089D0C0008B3
:10004000CD250008CD250008CD250008CD250008C8
:10005000CD250008CD25000849060008CD2500085B
:10006000CD250008CD250008CD250008CD250008A8
:10007000CD250008CD250008CD250008CD25000898
:10008000A50C0008CD250008CD250008CD250008C9
:10009000CD250008CD250008CD250008CD25000878
:1000A000CD250008CD250008CD250008CD25000868
:1000B000CD250008CD250008CD250008CD25000858
:1000C000CD250008CD250008CD250008CD25000848
:1000D000CD250008CD250008CD250008CD25000838
:1000E000CD250008CD250008CD250008CD25000828
:1000F000CD250008CD250008CD250008CD25000818
:10010000CD250008CD250008CD250008CD25000807
:10011000CD250008CD250008CD250008CD250008F7
:10012000CD250008CD250008CD250008CD250008E7
:10013000CD2500080000000000000000CD250008CB
:10014000CD250008CD250008CD250008CD250008C7
:10015000CD250008CD250008CD250008CD250008B7
:10016000CD250008CD250008CD250008CD250008A7
:10017000CD250008CD250008CD2500080000000091
:1001800000000000CD250008000000000000000075
:10019000CD2500080000000000000000CD2500086B
:1001A000000000000000000000000000CD25000855
:1001B000CD250008CD250008CD250008CD25000857
:0401C000CD25000841
:1001C40010B5054C237833B9044B13B10448AFF38D
:1001D40000800123237010BD2802002000000000CD
:1001E4002826000808B5034B1BB103490348AFF3A5
:1001F400008008BD000000002C0200202826000812
:1002040053B94AB9002908BF00281CBF4FF0FF3179
:100214004FF0FF3000F088B9ADF1080C6DE904CE61
:1002240000F006F8DDF804E0DDE9022304B07047CD
:100234002DE9F047089D8E4604468846002B4AD196
:100244008A42174662D9B2FA82F64EB1C6F1200349
:1002540001FA06F820FA03F3B74043EA0808B44069
:100264004FEA174E1FFA87FCB8FBFEF1230C0EFB76
:10027400118843EA084301FB0CF29A4209D9FB189E
:1002840001F1FF3080F0EA809A4240F2E7800239BF
:100294003B449A1AA3B2B2FBFEF00EFB102243EACF
:1002A400024300FB0CFC9C4509D9FB1800F1FF320A
:1002B40080F0D6809C4540F2D3803B44023840EA2B
:1002C4000140A3EB0C0300211DB1F3400022C5E95A
:1002D4000032BDE8F0878B4205D90DB1C5E90001B4
:1002E40000210846F5E7B3FA83F1002946D17345A6
:1002F40002D3824200F20581841A6EEB03020120CC
:100304009046002DE5D0C5E90048E2E7002A00F058
:100314009080B2FA82F6002E40F0A4808A1A030C70
:100324004FEA174E80B2BCB20121B2FBFEFC0EFBB9
:100334001C2243EA024304FB0CF29A4207D9FB183D
:100344000CF1FF3802D29A4200F2E080C4469B1AB4
:10035400B3FBFEF20EFB123340EA034302FB04F448
:100364009C4207D9FB1802F1FF3002D29C4200F2F2
:10037400CA8002461B1B42EA0C40A5E7C1F12006D5
:100384008B4022FA06F71F430EFA01F420FA06F313
:100394002EFA06FE4FEA1749234300FA01F81FFA22
:1003A40087FCBEFBF9F01C0C09FB10EE44EA0E447A
:1003B40000FB0CFEA64502FA01F209D93C1900F132
:1003C400FF3A80F09C80A64540F2998002383C4474
:1003D400A4EB0E041FFA83FEB4FBF9F309FB1344E8
:1003E4004EEA044403FB0CFCA44508D93C1903F170
:1003F400FF3E80F08280A4457FD9023B3C4443EA1F
:100404000040A4EB0C04A0FB02EC64457346E146F7
:1004140062D35FD05DB1B8EB030264EB090404FA64
:1004240006F622FA01F31E43CC40C5E9006400211C
:100434004FE7B1FBF2FC010C41EA0E4180B240EA05
:1004440001423B4638463C46B846BE462026B1FBF0
:10045400F7F1A2EB080241EA0C4166E7014618E70E
:1004640010462CE7C6F120022EFA02F3B740B14041
:1004740020FA02F24FEA174E0A43B3FBFEF8BCB26D
:100484000EFB1833110C41EA034108FB04F9B04098
:1004940089454FEA104380B23ED9791808F1FF3CF0
:1004A40001D289451FD8A1EB0901B1FBFEF909FB73
:1004B40004F80EFB191192B242EA0142424529D2D4
:1004C400BA1809F1FF31C4D24245C2D2A9F10201DE
:1004D4003A44BEE7F0459DD2BEEB02036CEB070C39
:1004E4000138E14696E7A7EB09094944A8F1020C53
:1004F400B1FBFEF909FB04F8DBE773467FE75046DE
:1005040066E70846FDE63B44023A33E7ACF1020CE9
:100514003B441CE749469CE7A1EB0901C446B1FBF7
:10052400FEF909FB04F8C4E7704700BF2DE9F04F5A
:1005340089B00024039404940594069407940094C9
:100544002F4B1A6B42F080021A631A6B02F080027E
:100554000092009A01941A6B42F001021A631A6B1A
:1005640002F001020192019A02941A6B42F0020213
:100574001A631B6B03F002030293029B4FF4404B7C
:10058400CDF80CB001260496DFF87CA003A95046F0
:1005940001F0F8FB4FF44079CDF80C90DFF86C8053
:1005A40003A9404601F0EEFB4FF410470397154DA5
:1005B40003A9284601F0E6FB22465946504601F0BD
:1005C400D1FC22464946404601F0CCFC224639463D
:1005D400284601F0C7FC03964FF48813049305964C
:1005E40003A9284601F0CEFB22460221062001F091
:1005F4002BFF062001F038FF09B0BDE8F08F00BFE3
:10060400003802400000024000080240000402409A
:1006140000B583B000210191094B1A6B42F400121A
:100624001A631B6B03F400130193019B0A46102009
:1006340001F00AFF102001F017FF03B05DF804FB7E
:100644000038024070B501F073FF1A4B5B6913F078
:10065400010F04D0184B1B68C31AC82B00D870BDF7
:10066400154B18600126134B5E61144C2268D36845
:1006740023F40073D360606A01F091FD104D2A7871
:100684003244104B83FB021303EB4303A2EB4303FB
:10069400DBB22B70304600F037FA2A780A4B53F855
:1006A400220000F025FA2268D36843F40073D36073
:1006B400D5E700BF003C014044020020F4020020C2
:1006C40048020020ABAAAA2A0000002072B6FEE766
:1006D40000B58FB000230A930B930C930D930893EA
:1006E4000993019302930393049305930693079349
:1006F40036484FF08042026043608360344A126897
:10070400013AC2600361836100F098FC002850D173
:100714004FF480530A930AA92C4800F0F5FD0028F1
:1007240049D12A4800F0B6FC002846D1002308939A
:10073400099308A9254800F079FF00283FD1002239
:10074400019202920392059201A9204800F032FD21
:10075400002836D1002300931E4A116B41F4001186
:100764001163126B02F400120092009A1A481B4A99
:1007740002604FF0C062426040228260C3604FF466
:10078400806202614FF4805242614FF48042826180
:100794004FF48072C2614FF400320262436201F08E
:1007A40063FC80B9094A0C4B53629A630FB05DF83D
:1007B40004FBFFF78BFFFFF789FFFFF787FFFFF7C6
:1007C40085FFFFF783FFFFF781FF00BFF4020020DE
:1007D40018000020003802404C02002088600240CB
:1007E40000B58FB000230A930B930C930D930893D9
:1007F4000993019302930393049305930693079338
:100804001E481F4A0260436083604FF6FF72C26055
:100814000361836100F012FC28BB4FF480530A93F8
:100824000AA9164800F070FDF8B9144800F05EFCFF
:10083400E8B900230893099308A9104800F0F6FECC
:10084400B8B960230193002302930393059308220C
:1008540001A90A4800F0DDFC68B9084800F090FAE4
:100864000FB05DF804FBFFF731FFFFF72FFFFFF731
:100874002DFFFFF72BFFFFF729FF00BFAC0200207D
:100884000004004000B595B03422002107A801F00F
:100894009CFE002302930393049305930693009311
:1008A400194A116C41F080511164126C02F08052AB
:1008B4000092009A019315490A6822F4404242F4D6
:1008C40080420A600A6802F440420192019A0222BC
:1008D400079201220A9210220B920D9307A801F0AD
:1008E4002FF868B90F230293002103910491059115
:1008F400069102A800F0E0FE20B915B05DF804FBF3
:10090400FFF7E4FEFFF7E2FE00380240007000400B
:1009140008B501F0E7FDFFF7B5FFFFF707FEFFF7A6
:1009240077FEFFF7D5FEFFF75BFF00F075F90821AE
:10093400134800F0F9FD08B1FFF7C8FE0021114883
:1009440000F070FD08B1FFF7C1FE0D4B1A6880235B
:100954003C320D490D4801F0EDFB08B1FFF7B6FE3E
:1009640000F05AF90A4800F0C3F8064B1A68D36835
:1009740043F40073D3604FF47A7001F0DFFDFAE7BB
:10098400AC020020F40200201C0000204C020020D5
:100994004026000882B000EB40000023019304E0ED
:1009A40000BF00BF019B01330193019B8342F7D336
:1009B40002B0704710B51420FFF7ECFF094CA3698F
:1009C40043F40043A3611420FFF7E4FFA36943F059
:1009D4000043A3611420FFF7DDFFA36943F4004340
:1009E400A36110BD0008024010B504463D4A936956
:1009F40043F48043936110F0800F41D13A4A9369E4
:100A040043F00043936114F0400F40D0364A936999
:100A140043F48053936114F0200F3ED0334A93691A
:100A240043F40073936114F0100F3CD02F4A936980
:100A340043F480739361FFF7BDFF14F0080F38D0BF
:100A4400294A936943F40043936114F0040F36D0A8
:100A5400254A936943F48053936114F0020F34D010
:100A6400224A936943F40073936114F0010F32D066
:100A74001E4A936943F480739361FFF79BFF10BD93
:100A8400A2F50062936943F400439361BBE7164AFD
:100A9400936943F080539361BDE7144A936943F02B
:100AA40000739361BFE7114A936943F080739361C4
:100AB400C1E70D4A936943F000439361C5E70A4ACD
:100AC400936943F080539361C7E7084A936943F0FD
:100AD40000739361C9E7054A936943F08073936196
:100AE400CBE700BF000802400000024000040240BF
:100AF40038B50546002403E0FFF776FF0134E4B27D
:100B0400285D0028F8D138BD10B504463F4A9369E2
:100B140043F08043936110F0800F45D13C4A9369C0
:100B240043F00043936114F0400F44D0384A936972
:100B340043F48053936114F0200F42D0354A9369F3
:100B440043F40073936114F0100F40D0314A936959
:100B540043F480739361FFF72DFF14F0080F3CD02A
:100B64002B4A936943F40043936114F0040F3AD081
:100B7400274A936943F48053936114F0020F38D0E9
:100B8400244A936943F40073936114F0010F36D03F
:100B9400204A936943F480739361FFF70BFF40F697
:100BA400B830FFF7F7FE10BDA2F50062936943F475
:100BB40000439361B7E7164A936943F08053936106
:100BC400B9E7144A936943F000739361BBE7114A90
:100BD400936943F080739361BDE70D4A936943F0D1
:100BE40000439361C1E70A4A936943F080539361D8
:100BF400C3E7084A936943F000739361C5E7054A64
:100C0400936943F080739361C7E700BF0008024013
:100C1400000002400004024008B5194B1A6B42F070
:100C240001021A631A6B42F002021A631A6B42F051
:100C340004021A63134A136843F08243136002F5F3
:100C44008062136843F4A023136002F58062136882
:100C540043F0A043136047F23050FFF79BFE33206C
:100C6400FFF752FF3220FFF74FFF0C20FFF74CFF36
:100C74002820FFF749FF0120FFF746FF08BD00BF0A
:100C84000038024000000240FEE7FEE7FEE7FEE710
:100C9400FEE770477047704708B501F03DFC08BD9A
:100CA40008B5024801F08EFA08BD00BF4C020020CE
:100CB40082B0002100910B4B5A6C42F480425A647A
:100CC4005A6C02F480420092009A01911A6C42F02C
:100CD40080521A641B6C03F080530193019B02B091
:100CE400704700BF0038024010B582B00368B3F10A
:100CF400804F04D01E4A93422CD002B010BD04464B
:100D0400002300931B4A116C41F001011164126C21
:100D140002F001020092009A1748184A02604FF04C
:100D2400C06242608360C3604FF4806202614FF42A
:100D3400805242614FF480428261C3610362436224
:100D440001F092F918B90C4B63629C63D5E7FFF785
:100D5400BDFCF8E700230193064B1A6C42F0020233
:100D64001A641B6C03F002030193019BC5E700BFE7
:100D740000040040003802404C0200208860024019
:100D840000B587B000230193029303930493059362
:100D940002680E4B9A4202D007B05DF804FB0023B0
:100DA40000930B4B1A6B42F002021A631B6B03F0A5
:100DB40002030093009B01230193022302930593F2
:100DC40001A9044800F0DEFFE6E700BF000400408C
:100DD400003802400004024030B4036A026A22F080
:100DE400010202624268846924F0730C0C6844EACC
:100DF4000C0423F0020C8B6843EA0C03114DA84247
:100E040003D005F58065A84205D123F00803CD6819
:100E14002B4323F004030B4DA84203D005F5806552
:100E2400A84207D122F440724D6945EA020C8A694E
:100E340042EA0C02426084614A684263036230BC45
:100E4400704700BF0000014030B4036A026A22F414
:100E5400807202624268C46924F0730C0C6844EA2C
:100E64000C0523F400738C6843EA0423114CA0425C
:100E740003D004F58064A04206D123F40063CC6857
:100E840043EA042323F480630A4CA04203D004F50C
:100E94008064A04207D122F440524C6942EA041211
:100EA4008C6942EA04124260C5614A68C263036203
:100EB40030BC70470000014030B4036A026A22F477
:100EC400805202624468C26922F4E6420D6842EA32
:100ED400052223F400538D6843EA0533094DA842E3
:100EE40003D005F58065A84204D124F480444D69FB
:100EF40044EA85144460C2614A680264036230BCF7
:100F0400704700BF0000014010B4036A046A24F073
:100F140001040462846924F0F00C4CEA021223F008
:100F24000A030B43826103625DF8044B704710B4FB
:100F3400036A046A24F010040462846924F4704C83
:100F44004CEA023223F0A00343EA011382610362F4
:100F54005DF8044B7047836823F070030B4343F040
:100F64000703836070477047704700000368324A84
:100F7400904212D0B0F1804F0FD0A2F57C42904243
:100F84000BD002F58062904207D002F58062904255
:100F940003D002F57842904203D123F070034A68EB
:100FA4001343254A90422AD0B0F1804F27D0A2F5AE
:100FB4007C42904223D002F5806290421FD002F519
:100FC400806290421BD002F57842904217D002F51D
:100FD4007052904213D002F5806290420FD002F515
:100FE400806290420BD0A2F59832904207D002F56D
:100FF4008062904203D002F58062904203D123F4D0
:101004004073CA68134323F080034A6913438A6810
:10101400C2620A688262084A904203D002F5806282
:10102400904201D10A690263026842F0040202603C
:1010340001224261036070470000014040B310B5D3
:10104400044690F83D30F3B1022384F83D30214644
:1010540051F8040BFFF78AFF012384F8463084F823
:101064003E3084F83F3084F8403084F8413084F8CE
:10107400423084F8433084F8443084F8453084F8AE
:101084003D30002010BD80F83C30FFF72DFEDBE73B
:101094000120704740B310B5044690F83D30F3B1D9
:1010A400022384F83D30214651F8040BFFF75EFF1C
:1010B400012384F8463084F83E3084F83F3084F8C5
:1010C400403084F8413084F8423084F8433084F866
:1010D400443084F8453084F83D30002010BD80F859
:1010E4003C30FFF740FFDBE70120704740B310B509
:1010F400044690F83D30F3B1022384F83D30214694
:1011040051F8040BFFF732FF012384F8463084F8CA
:101114003E3084F83F3084F8403084F8413084F81D
:10112400423084F8433084F8443084F8453084F8FD
:101134003D30002010BD80F83C30FFF715FFDBE7A1
:101144000120704730B4036A026A22F0100202627E
:101154004468826922F4E6420D6842EA052223F0DB
:1011640020038D6843EA0513114DA84203D005F509
:101174008065A84206D123F08003CD6843EA0513B5
:1011840023F040030A4DA84203D005F58065A84228
:1011940007D124F440644D6944EA85048D6944EA26
:1011A4008504446082614A688263036230BC70478C
:1011B4000000014090F83C30012B28D010B50446C3
:1011C400012380F83C300C2A1CD8DFE802F0071B0E
:1011D4001B1B0C1B1B1B111B1B1B16000068FFF7A2
:1011E400FBFD00200FE00068FFF7ACFF00200AE0E1
:1011F4000068FFF729FE002005E00068FFF75CFEA9
:10120400002000E00120002384F83C3010BD0220BF
:10121400704738B590F83C30012B66D004460D4633
:10122400012380F83C300C2A5AD8DFE802F0075931
:1012340059591B5959593059595944000068FFF7F5
:10124400CBFD2268936943F0080393612268936994
:1012540023F0040393612268936929690B43936122
:1012640000203EE00068FFF76DFF2268936943F4B5
:10127400006393612268936923F480639361226815
:101284009369296943EA01239361002029E00068F6
:10129400FFF7DAFD2268D36943F00803D3612268BB
:1012A400D36923F00403D3612268D36929690B430A
:1012B400D361002015E00068FFF7FEFD2268D369C2
:1012C40043F40063D3612268D36923F48063D36158
:1012D4002268D369296943EA0123D361002000E02D
:1012E4000120002384F83C3038BD0220FCE710B410
:1012F400846824F47F4C42EA03220A4342EA0C0243
:1013040082605DF8044B704790F83C30012B78D034
:1013140010B50446012380F83C30022380F83D30A8
:101324000268936823F47F4323F0770393600B6888
:10133400602B4CD023D8402B54D011D8202B03D071
:101344000AD80BB1102B05D119462068FFF703FE0C
:10135400002028E0012026E0302BF5D0012022E0F7
:10136400502B0AD1CA6849680068FFF7CDFD5021A7
:101374002068FFF7F0FD002015E0012013E0B3F52D
:10138400805F3AD0B3F5005F14D0702B37D1CB68AF
:101394004A6889680068FFF7AAFF2268936843F0E7
:1013A400770393600020012384F83D30002384F800
:1013B4003C3010BDCB684A6889680068FFF797FF26
:1013C4002268936843F4804393600020EBE7CA6883
:1013D40049680068FFF7ABFD60212068FFF7BBFD9B
:1013E4000020E0E7CA6849680068FFF78DFD4021E6
:1013F4002068FFF7B0FD0020D5E70020D3E70120E7
:10140400D1E70220704701F01F014FF0010C0CFAE4
:1014140001FC036A23EA0C030362036A8A40134350
:101424000362704710B504460846002942D194F877
:101434003E30DBB2013B18BF0123002B6ED10028E4
:1014440051D1022384F83E30012201462068FFF77F
:10145400DAFF2368334A934203D002F58062934251
:1014640003D15A6C42F400425A6423682D4A9342D1
:1014740049D0B3F1804F46D0A2F57C42934242D08A
:1014840002F5806293423ED002F5806293423AD0E4
:1014940002F57842934236D002F57052934232D02C
:1014A400A2F5943293422ED01A6842F001021A60D7
:1014B400002032E0042908D008290DD094F84130E6
:1014C400DBB2013B18BF0123B7E794F83F30DBB22E
:1014D400013B18BF0123B0E794F84030DBB2013B75
:1014E40018BF0123A9E7042805D0082807D0022340
:1014F40084F84130A8E7022384F83F30A4E70223AC
:1015040084F84030A0E79A6802F00702062A07D060
:101514001A6842F001021A60002010BD0120FCE7A5
:101524000020FAE70000014010B5044608460029EF
:1015340042D194F83E30DBB2013B18BF0123002BAB
:101544006ED1002851D1022384F83E300122014695
:101554002068FFF758FF2368334A934203D002F50B
:101564008062934203D15A6C42F400425A64236865
:101574002D4A934249D0B3F1804F46D0A2F57C4224
:10158400934242D002F5806293423ED002F58062DB
:1015940093423AD002F57842934236D002F5705223
:1015A400934232D0A2F5943293422ED01A6842F07C
:1015B40001021A60002032E0042908D008290DD065
:1015C40094F84130DBB2013B18BF0123B7E794F82C
:1015D4003F30DBB2013B18BF0123B0E794F8403041
:1015E400DBB2013B18BF0123A9E7042805D0082872
:1015F40007D0022384F84130A8E7022384F83F305F
:10160400A4E7022384F84030A0E79A6802F00702B6
:10161400062A07D01A6842F001021A60002010BDA1
:101624000120FCE70020FAE70000014090F83C208C
:10163400012A3DD010B40346012280F83C20022246
:1016440080F83D2002685068946820F0700C0868A7
:1016540040EA0C0050601A68164882421AD0B2F16F
:10166400804F17D0A0F57C40824213D000F58060F3
:1016740082420FD000F5806082420BD000F57840A2
:10168400824207D000F57050824203D0A0F5943016
:10169400824204D124F080044968214391600122EC
:1016A40083F83D20002083F83C005DF8044B70472C
:1016B4000220704700000140002800F09B8070B5B4
:1016C4000D4604464F4B1B6803F00F038B4208D2B0
:1016D400CBB24C4A1370136803F00F038B4240F0F3
:1016E4008B80236813F0020F17D013F0040F04D07B
:1016F400454A936843F4E0539360236813F0080F5A
:1017040004D0414A936843F4604393603E4A93682B
:1017140023F0F003A1680B439360236813F0010FD7
:1017240032D06368012B21D09A1E012A25D9364A6A
:10173400126812F0020F61D033498A6822F0030262
:1017440013438B6000F0F4FE06462F4B9B6803F0B6
:101754000C036268B3EB820F16D000F0E9FE801B25
:1017640041F288339842F0D9032042E0264A1268B5
:1017740012F4003FE0D101203BE0234A126812F04A
:10178400007FD9D1012034E01E4B1B6803F00F0306
:10179400AB4207D9EAB21B4B1A701B6803F00F0364
:1017A400AB422DD1236813F0040F06D0164A936878
:1017B40023F4E053E1680B439360236813F0080FAC
:1017C40007D0114A936823F46043216943EAC103B3
:1017D400936000F021F80C4B9B68C3F303130B4A8E
:1017E400D35CD8400A4B18600A4B186800F054FECA
:1017F400002070BD012070470120FAE70120F8E7BE
:101804000120F6E7003C0240003802408026000830
:10181400240200202002002008B5464B9B6803F0F8
:101824000C03082B05D00C2B43D0042B7FD142484A
:1018340019E0404B5A6802F03F025B6813F4800FD2
:1018440012D03C4B5968C1F388113B480023A1FBDB
:101854000001FEF7D5FC374B5B68C3F3014301334A
:101864005B00B0FBF3F008BD324B5868C0F388103E
:101874004FEA401CBCEB000C6EEB0E0E4FEA8E13CD
:1018840043EA9C634FEA8C11B1EB0C0163EB0E034A
:10189400DB0043EA5173C90011EB000C43F1000370
:1018A400990200234FEA8C2041EA9C51FEF7A8FCE0
:1018B400D1E7204B5A6802F03F025B6813F4800FB3
:1018C40010D01C4B5968C1F388111B480023A1FB9D
:1018D4000001FEF795FC174B5B68C3F30273B0FB82
:1018E400F3F0C0E7134B5868C0F388104FEA401C6C
:1018F400BCEB000C6EEB0E0E4FEA8E1343EA9C63B6
:101904004FEA8C11B1EB0C0163EB0E03DB0043EAED
:101914005173C90011EB000C43F100039902002339
:101924004FEA8C2041EA9C51FEF76AFCD3E7034856
:1019340099E700BF0038024040787D010024F4009C
:10194400002800F0018270B582B00446036813F0E9
:10195400010F41D0994B9B6803F00C03042B32D048
:10196400964B9B6803F00C03082B27D0934B9B6882
:1019740003F00C030C2B59D06368B3F5803F5BD0A4
:10198400B3F5A02F5ED08D4B1A6822F480321A6012
:101994001A6822F480221A606368002B5CD000F07D
:1019A400C7FD0546854B1B6813F4003F14D100F0B6
:1019B400BFFD401B6428F5D90320CCE17F4B5B6855
:1019C40013F4800FD2D07D4B1B6813F4003F03D077
:1019D4006368002B00F0BA81236813F0020F60D013
:1019E400764B9B6813F00C0F4AD0744B9B6803F042
:1019F4000C03082B3FD0714B9B6803F00C030C2B9A
:101A040069D0E368002B75D06D4B01221A6000F099
:101A14008FFD0546694B1B6813F0020F61D100F07E
:101A240087FD401B0228F5D9032094E1634B5B68D2
:101A340013F4800FA0D0C6E7604A136843F48033E0
:101A44001360A9E75D4B1A6842F480221A601A6891
:101A540042F480321A609FE700F06AFD0546574B56
:101A64001B6813F4003FB7D000F062FD401B6428EC
:101A7400F5D903206FE1514B5B6813F4800FBAD1A1
:101A84004E4B1B6813F0020F03D0E368012B40F0A8
:101A94005F814A4A136823F0F803216943EAC103CA
:101AA4001360236813F0080F49D06369002B33D007
:101AB400434B0122C3F8802E00F03AFD05463F4B0C
:101AC4005B6F13F0020F3AD100F032FD401B022885
:101AD400F5D903203FE1394B5B6813F4800F90D1B3
:101AE400CEE7364A136823F0F803216943EAC103B9
:101AF4001360D6E7324B00221A6000F019FD054648
:101B04002E4B1B6813F0020FCBD000F011FD401BCD
:101B14000228F5D903201EE1294B0022C3F8802EA8
:101B240000F006FD0546254B5B6F13F0020F06D04F
:101B340000F0FEFC401B0228F5D903200BE12368CA
:101B440013F0040F76D01D4B1B6C13F0805F33D160
:101B540000230193194B1A6C42F080521A641B6CD7
:101B640003F080530193019B0125164B1B6813F46A
:101B7400807F29D0A368012B3AD0052B3ED00F4B90
:101B84001A6F22F001021A671A6F22F004021A6710
:101B9400A368002B3CD000F0CBFC0646074B1B6F20
:101BA40013F0020F45D100F0C3FC801B41F28833CF
:101BB4009842F3D90320CEE00025D6E7003802404E
:101BC40000004742007000406B4A136843F480737E
:101BD400136000F0ADFC0646674B1B6813F4807F6E
:101BE400C8D100F0A5FC801B0228F5D90320B2E07F
:101BF400624A136F43F001031367C9E75F4B1A6F1F
:101C040042F004021A671A6F42F001021A67BFE732
:101C140000F08EFC0646594B1B6F13F0020F08D0E0
:101C240000F086FC801B41F288339842F3D90320EC
:101C340091E0EDB9A369002B00F08C804F4A9268C3
:101C440002F00C02082A54D0022B17D04C4B00226D
:101C54001A6600F06DFC0446484B1B6813F0007FC5
:101C640045D000F065FC001B0228F5D9032072E082
:101C7400424A136C23F080531364DBE7404B002289
:101C84001A6600F055FC05463C4B1B6813F0007FB8
:101C940006D000F04DFC401B0228F5D903205AE081
:101CA400E369226A1343626A43EA8213A26A52080E
:101CB400013A43EA0243E26A43EA0263226B43EADB
:101CC40002732E4A53602E4B01221A6600F030FC38
:101CD40004462A4B1B6813F0007F06D100F028FC51
:101CE400001B0228F5D9032035E0002033E0002052
:101CF40031E0012B31D0214B5B6803F48001E269B0
:101D040091422CD103F03F02216A8A4229D1616AAF
:101D140047F6C0721A40B2EB811F24D103F440315C
:101D2400A26A5208013AB1EB024F1ED103F070626D
:101D3400E16AB2EB016F1AD103F0E043226BB3EB1B
:101D4400027F16D1002006E001207047012002E046
:101D5400012000E0002002B070BD0120FBE701205B
:101D6400F9E70120F7E70120F5E70120F3E7012077
:101D7400F1E70120EFE700BF0070004000380240A7
:101D84000000474200230F2B00F2E38070B582B0BD
:101D940065E085684FEA430E032404FA0EF425EA4D
:101DA4000405CC6804FA0EF42C438460446824EAE5
:101DB40002044A68C2F300129A40224342605CE083
:101DC400DC08083450F8242003F00705AD004FF078
:101DD4000F0E0EFA05FE22EA0E0E0A69AA4042EA26
:101DE4000E0240F824205CE0062200E0002202FA01
:101DF4000EF22A430234574D45F82420564A94687B
:101E04006FEA0C0224EA0C054E6816F4801F01D018
:101E14004CEA0405504CA560E46802EA04054E68E7
:101E240016F4001F01D04CEA04054B4CE5606468CD
:101E340002EA04054E6816F4003F01D04CEA04059A
:101E4400454C6560246822404D6815F4803F01D0FC
:101E54004CEA0402404C226001330F2B77D8012254
:101E64009A400C6804EA020C32EA0404F4D14C6887
:101E740004F00304013C012C8BD94A6802F00302EC
:101E8400032A09D0C4685D000322AA4024EA02049C
:101E94008A68AA402243C2604A6802F00302022A06
:101EA4008ED004684FEA430E032202FA0EF224EAAB
:101EB40002044A6802F0030202FA0EF222430260AC
:101EC4004A6812F4403FC7D000220192234A546C5E
:101ED40044F480445464526C02F480420192019AA6
:101EE4009C08A51C1B4A52F8255003F0030E4FEA28
:101EF4008E0E0F2202FA0EF225EA0205184A9042CB
:101F04003FF474AF02F58062904216D002F580620D
:101F1400904214D002F58062904212D002F58062A1
:101F2400904210D002F5806290420ED002F5806299
:101F340090423FF459AF072259E7012257E70222A2
:101F440055E7032253E7042251E705224FE702B085
:101F540070BD704700380140003C01400038024029
:101F6400000002400AB18161704709048161704731
:101F740030B405682C6824F480242C600468636001
:101F84008368402B05D0036899600368DA6030BC2D
:101F9400704703689A600368D960F8E710B403686F
:101FA400D9B210390A4AA2FB01421209094CA25CB7
:101FB400C2655F2907D96FF3090304338365806D14
:101FC4005DF8044B70476FF309038365F7E700BFBF
:101FD400ABAAAAAA78260008836A826992B9012B5F
:101FE4000AD0022B02D00BB100207047C36A13F051
:101FF400807F28D100207047C36AB3F1C07F24D00A
:1020040000207047B2F5005F09D0022B25D9032BBD
:1020140025D1C36A13F0807F23D100207047032B9E
:1020240003D8DFE803F01404140A00207047C36ADD
:1020340013F0807F0DD100207047C36AB3F1C07FD5
:1020440009D000207047012070470120704701200B
:10205400704701207047012070470120704700201D
:10206400704701207047000070B5044600F060FA24
:10207400002C5BD00546022384F83530002384F815
:1020840034302268136823F00103136023681A684C
:1020940012F0010F0AD000F04BFA431B052BF5D9BF
:1020A40020236365032084F8350070BD1A68204935
:1020B40011406268A0680243E06802432069024359
:1020C40060690243A0690243E0690243206A024353
:1020D4000A43616A04291ED01A602668756925F0CE
:1020E4000705636A1D43042B07D1A36A1D43E36AF2
:1020F4001BB12046FFF770FF90B975612046FFF7CA
:102104004DFFE26D3F23934083600020606501230F
:1021140084F83530C9E7E16A206B01430A43DBE701
:1021240040236365012084F83500BEE70120BCE745
:102134003F8010F038B50446856D90F834000128CE
:102144002BD0012084F8340094F83500C0B2012863
:1021540004D0002384F83430022038BD022084F8EF
:102164003500002060652046FFF702FFE26D3F2343
:102174009340AB602268136843F016031360236C2A
:1021840023B12268136843F00803136022681368BC
:1021940043F0010313600020DFE70220DDE790F83D
:1021A4003530DBB2022B03D0802343650120704716
:1021B400052380F835300268136823F001031360A7
:1021C40000207047F0B583B0044600230193724B9E
:1021D4001D68724BA3FB0535AD0A876D3E68C26D61
:1021E40008239340334210D003681A6812F0040F96
:1021F4000BD01A6822F004021A60C26D08239340BF
:10220400BB60436D43F001034365E26D01239340DA
:10221400334209D02268526912F0800F04D0BB60A7
:10222400636D43F002036365E26D0423934033421C
:1022340009D02268126812F0020F04D0BB60636DEB
:1022440043F004036365E26D10239340334224D0CA
:102254002268126812F0080F1FD0BB6023681A6846
:1022640012F4802F0DD01B6813F4002F04D1236CBB
:102274009BB12046984710E0A36C73B12046984761
:102284000BE01A6812F4807F03D11A6822F0080266
:102294001A60236C0BB120469847E26D20239340CB
:1022A400334255D02268126812F0100F50D0BB6030
:1022B40094F83530DBB2052B0ED023681A6812F47B
:1022C400802F33D01B6813F4002F2AD1636C002BAA
:1022D4003ED0204698473BE02268136823F016035B
:1022E40013602268536923F080035361236CA3B104
:1022F4002268136823F008031360E26D3F239340C0
:10230400BB60012384F83530002384F83430236D16
:10231400002B3FD0204698473CE0A36C002BE7D12C
:10232400EBE7E36BA3B12046984711E01A6812F477
:10233400807F09D11A6822F010021A60012384F800
:102344003530002384F83430E36B0BB120469847D2
:10235400636DFBB1636D13F0010F17D0052384F88F
:1023640035302268136823F001031360019B0133A5
:102374000193AB4204D823681B6813F0010FF5D115
:10238400012384F83530002384F83430E36C0BB136
:102394002046984703B0F0BD24020020B5814E1BAF
:1023A400002807DB00F01F02400901239340024A82
:1023B40042F82030704700BF00E100E0002808DB4D
:1023C4000901C9B200F1604000F5614080F80013D2
:1023D400704700F00F000901C9B2014B195470474E
:1023E40014ED00E000B500F00700C0F1070CBCF1EB
:1023F400040F28BF4FF0040C031D062B0FD9C31E76
:102404004FF0FF3E0EFA0CF021EA000199400EFA5B
:1024140003FE22EA0E0241EA02005DF804FB0023F7
:10242400EEE70000074AD36823F4E0631B041B0CA7
:10243400000200F4E060034343F0BF6343F400335D
:10244400D360704700ED00E010B50446054BD86832
:10245400C0F30220FFF7C6FF01462046FFF7AEFF98
:1024640010BD00BF00ED00E008B5FFF799FF08BDFF
:102474000138B0F1807F0BD24FF0E0235861054A58
:10248400F02182F823100020986107221A61704716
:102494000120704700ED00E010B504460E4B1A7899
:1024A4004FF47A73B3FBF2F30C4A1068B0FBF3F009
:1024B400FFF7DEFF68B90F2C01D901200AE00022E2
:1024C40021464FF0FF30FFF7BFFF054B1C60002093
:1024D40000E0012010BD00BF1C02002024020020E7
:1024E4002002002008B50B4B1A6842F400721A60EF
:1024F4001A6842F480621A601A6842F480721A60A0
:102504000320FFF78FFF0F20FFF7C6FFFEF7D0FB76
:10251400002008BD003C0240034A1168034B1B78AD
:102524000B441360704700BF3C0300201C020020D2
:10253400014B1868704700BF3C03002038B50446BF
:10254400FFF7F6FF0546B4F1FF3F02D0044B1B78BA
:102554001C44FFF7EDFF401BA042FAD338BD00BF77
:102564001C020020034AD2F8883043F47003C2F8F6
:102574008830704700ED00E0DFF834D0FFF7F2FF59
:102584000C480D490D4A002302E0D458C4500433CA
:10259400C4188C42F9D30A4A0A4C002301E01360A0
:1025A4000432A242FBD300F019F8FEF7B1F97047E8
:1025B400000002200000002028020020A0260008BD
:1025C4002802002040030020FEE702440346934211
:1025D40000D1704703F8011BF9E7000070B50D4DF9
:1025E4000D4C641BA4100026A64209D10B4D0C4CC3
:1025F40000F018F8641BA4100026A64205D170BD93
:1026040055F8043B98470136EEE755F8043B9847E4
:102614000136F2E798260008982600089826000854
:102624009C260008F8B500BFF8BC08BC9E4670475D
:0C263400F8B500BFF8BC08BC9E4670471B
:1026400053696E6500000000536177746F6F7468A2
:1026500000000000547269616E676C650000000044
:102660005069616E6F000000477569746172000007
:102670004472756D0000000000061016000610166A
:102680000000000000000000010203040607080922
:08269000A4DBFF7F0100000044
:04269800E90100084C
:04269C00C50100086C
:1026A0004026000848260008542600086026000836
:1026B00068260008702600087D000000FF07000063
:1026C00063080000C80800002B0900008E09000004
:1026D000F1090000510A0000B10A00000F0B0000D0
:1026E0006A0B0000C40B00001C0C0000710C000001
:1026F000C30C0000120D00005E0D0000A70D0000CD
:10270000EC0D00002E0E00006C0E0000A50E000067
:10271000DB0E00000D0F00003A0F0000630F0000F9
:10272000870F0000A60F0000C10F0000D70F0000A8
:10273000E80F0000F50F0000FC0F0000FF0F000085
:10274000FC0F0000F50F0000E80F0000D70F00009D
:10275000C10F0000A60F0000870F0000630F0000EC
:102760003A0F00000D0F0000DB0E0000A50E000068
:102770006C0E00002E0E0000EC0D0000A70D0000F6
:102780005E0D0000120D0000C30C0000710C000073
:102790001C0C0000C40B00006A0B00000F0B0000B3
:1027A000B10A0000510A0000F10900008E09000082
:1027B0002B090000C808000063080000FF070000A4
:1027C0009B07000036070000D306000070060000DB
:1027D0000D060000AD0500004D050000EF040000EF
:1027E000940400003A040000E20300008D0300009E
:1027F0003B030000EC020000A002000057020000B2
:1028000012020000D00100009201000059010000F6
:1028100023010000F1000000C40000009B00000044
:1028200077000000580000003D0000002700000075
:102830001600000009000000020000000000000077
:102840000200000009000000160000002700000040
:102850003D00000058000000770000009B000000D1
:10286000C4000000F1000000230100005901000035
:1028700092010000D0010000120200005702000087
:10288000A0020000EC0200003B0300008D030000EA
:10289000E20300003A04000094040000EF0400008A
:1028A0004D050000AD0500000D060000700600009B
:1028B000D3060000360700009B070000010000005F
:0828C000100000000024F400E8
:040000050800257D4D
:00000001FF
