:020000040800F2
:10000000000002203D290008A10C0008A30C0008F4
:10001000A50C0008A70C0008A90C000800000000AF
:10002000000000000000000000000000AB0C000811
:10003000AD0C000800000000AF0C0008B10C000877
:100040008D2900088D2900088D2900088D290008B8
:100050008D2900088D290008110900088D29000844
:100060008D2900088D2900088D2900088D29000898
:100070008D2900088D2900088D2900088D29000888
:10008000B90C00088D2900088D2900088D29000869
:100090008D2900088D2900088D2900088D29000868
:1000A0008D2900088D2900088D2900088D29000858
:1000B0008D2900088D2900088D2900088D29000848
:1000C0008D2900088D2900088D2900088D29000838
:1000D0008D2900088D2900088D2900088D29000828
:1000E0008D2900088D2900088D2900088D29000818
:1000F0008D2900088D2900088D2900088D29000808
:100100008D2900088D2900088D2900088D290008F7
:100110008D2900088D2900088D2900088D290008E7
:100120008D2900088D2900088D2900088D290008D7
:100130008D29000800000000000000008D29000843
:100140008D2900088D2900088D2900088D290008B7
:100150008D2900088D2900088D2900088D290008A7
:100160008D2900088D2900088D2900088D29000897
:100170008D2900088D2900088D2900080000000045
:10018000000000008D2900080000000000000000B1
:100190008D29000800000000000000008D290008E3
:1001A0000000000000000000000000008D29000891
:1001B0008D2900088D2900088D2900088D29000847
:0401C0008D2900087D
:1001C40010B5054C237833B9044B13B10448AFF38D
:1001D40000800123237010BD400C002000000000AB
:1001E400E829000808B5034B1BB103490348AFF3E2
:1001F400008008BD00000000440C0020E82900082D
:1002040053B94AB9002908BF00281CBF4FF0FF3179
:100214004FF0FF3000F088B9ADF1080C6DE904CE61
:1002240000F006F8DDF804E0DDE9022304B07047CD
:100234002DE9F047089D8E4604468846002B4AD196
:100244008A42174662D9B2FA82F64EB1C6F1200349
:1002540001FA06F820FA03F3B74043EA0808B44069
:100264004FEA174E1FFA87FCB8FBFEF1230C0EFB76
:10027400118843EA084301FB0CF29A4209D9FB189E
:1002840001F1FF3080F0EA809A4240F2E7800239BF
:100294003B449A1AA3B2B2FBFEF00EFB102243EACF
:1002A400024300FB0CFC9C4509D9FB1800F1FF320A
:1002B40080F0D6809C4540F2D3803B44023840EA2B
:1002C4000140A3EB0C0300211DB1F3400022C5E95A
:1002D4000032BDE8F0878B4205D90DB1C5E90001B4
:1002E40000210846F5E7B3FA83F1002946D17345A6
:1002F40002D3824200F20581841A6EEB03020120CC
:100304009046002DE5D0C5E90048E2E7002A00F058
:100314009080B2FA82F6002E40F0A4808A1A030C70
:100324004FEA174E80B2BCB20121B2FBFEFC0EFBB9
:100334001C2243EA024304FB0CF29A4207D9FB183D
:100344000CF1FF3802D29A4200F2E080C4469B1AB4
:10035400B3FBFEF20EFB123340EA034302FB04F448
:100364009C4207D9FB1802F1FF3002D29C4200F2F2
:10037400CA8002461B1B42EA0C40A5E7C1F12006D5
:100384008B4022FA06F71F430EFA01F420FA06F313
:100394002EFA06FE4FEA1749234300FA01F81FFA22
:1003A40087FCBEFBF9F01C0C09FB10EE44EA0E447A
:1003B40000FB0CFEA64502FA01F209D93C1900F132
:1003C400FF3A80F09C80A64540F2998002383C4474
:1003D400A4EB0E041FFA83FEB4FBF9F309FB1344E8
:1003E4004EEA044403FB0CFCA44508D93C1903F170
:1003F400FF3E80F08280A4457FD9023B3C4443EA1F
:100404000040A4EB0C04A0FB02EC64457346E146F7
:1004140062D35FD05DB1B8EB030264EB090404FA64
:1004240006F622FA01F31E43CC40C5E9006400211C
:100434004FE7B1FBF2FC010C41EA0E4180B240EA05
:1004440001423B4638463C46B846BE462026B1FBF0
:10045400F7F1A2EB080241EA0C4166E7014618E70E
:1004640010462CE7C6F120022EFA02F3B740B14041
:1004740020FA02F24FEA174E0A43B3FBFEF8BCB26D
:100484000EFB1833110C41EA034108FB04F9B04098
:1004940089454FEA104380B23ED9791808F1FF3CF0
:1004A40001D289451FD8A1EB0901B1FBFEF909FB73
:1004B40004F80EFB191192B242EA0142424529D2D4
:1004C400BA1809F1FF31C4D24245C2D2A9F10201DE
:1004D4003A44BEE7F0459DD2BEEB02036CEB070C39
:1004E4000138E14696E7A7EB09094944A8F1020C53
:1004F400B1FBFEF909FB04F8DBE773467FE75046DE
:1005040066E70846FDE63B44023A33E7ACF1020CE9
:100514003B441CE749469CE7A1EB0901C446B1FBF7
:10052400FEF909FB04F8C4E7704700BF2DE9F04F5A
:1005340089B00024039404940594069407940094C9
:100544002F4B1A6B42F080021A631A6B02F080027E
:100554000092009A01941A6B42F001021A631A6B1A
:1005640002F001020192019A02941A6B42F0020213
:100574001A631B6B03F002030293029B4FF4404B7C
:10058400CDF80CB001260496DFF87CA003A95046F0
:1005940001F0D8FD4FF44079CDF80C90DFF86C8071
:1005A40003A9404601F0CEFD4FF410470397154DC3
:1005B40003A9284601F0C6FD22465946504601F0DB
:1005C400B1FE22464946404601F0ACFE2246394679
:1005D400284601F0A7FE03964FF48813049305966A
:1005E40003A9284601F0AEFD22460221062002F0AE
:1005F4000BF9062002F018F909B0BDE8F08F00BF2E
:10060400003802400000024000080240000402409A
:1006140000B583B000210191094B1A6B42F400121A
:100624001A631B6B03F400130193019B0A46102009
:1006340002F0EAF8102002F0F7F803B05DF804FBCA
:100644000038024072B6FEE700B58FB000230A936B
:100654000B930C930D9308930993019302930393C3
:10066400049305930693079336484FF08042026043
:1006740043608360344A1268013AC2600361836153
:1006840000F06EFD002850D14FF480530A930AA95C
:100694002C4800F0CBFE002849D12A4800F08CFDFC
:1006A400002846D100230893099308A9254801F09E
:1006B4009DF900283FD100220192029203920592F3
:1006C40001A9204800F008FE002836D10023009339
:1006D4001E4A116B41F400111163126B02F40012F3
:1006E4000092009A1A481B4A02604FF0C0624260AE
:1006F40040228260C3604FF4806202614FF48052F2
:1007040042614FF4804282614FF48072C2614FF4BF
:1007140000320262436201F087FE80B9094A0C4B41
:1007240053629A630FB05DF804FBFFF78BFFFFF78A
:1007340089FFFFF787FFFFF785FFFFF783FFFFF7C9
:1007440081FF00BF0C0D0020300000200038024063
:10075400640C00208860024000B58FB000230A9327
:100764000B930C930D9308930993019302930393B2
:1007740004930593069307931E481F4A026043603F
:1007840083604FF6FF72C2600361836100F0E8FC8E
:1007940028BB4FF480530A930AA9164800F046FE7A
:1007A400F8B9144800F034FDE8B90023089309931C
:1007B40008A9104801F01AF9B8B96023019300237D
:1007C400029303930593082201A90A4800F0B3FD9C
:1007D40068B9084800F0DEFA0FB05DF804FBFFF7D3
:1007E40031FFFFF72FFFFFF72DFFFFF72BFFFFF779
:1007F40029FF00BFC40C00200004004000B595B0E0
:100804003422002107A802F0C0F8002302930393C6
:100814000493059306930093194A116C41F0805197
:100824001164126C02F080520092009A01931549EF
:100834000A6822F4404242F480420A600A6802F4E0
:1008440040420192019A0222079201220A92102246
:100854000B920D9307A801F053FA68B90F23029382
:100864000021039104910591069102A801F004F975
:1008740020B915B05DF804FBFFF7E4FEFFF7E2FED4
:10088400003802400070004008B502F00BF8FFF792
:10089400B5FFFFF74BFEFFF7BBFEFFF7D5FEFFF7F3
:1008A4005BFF00F0C3F90821134801F01DF808B1FB
:1008B400FFF7C8FE0021114800F046FE08B1FFF71B
:1008C400C1FE0D4B1A6880233C320D490D4801F0DE
:1008D40011FE08B1FFF7B6FE00F0A8F90A4800F0CF
:1008E40011F9064B1A68D36843F40073D3604FF4CC
:1008F4007A7002F003F8FAE7C40C00200C0D002013
:10090400340A0020640C0020002A00081F4B5B6995
:1009140013F0010F00D1704710B51C4B01225A612E
:1009240001F0E6FF1A4B1B68C31AC72B00D810BD91
:10093400174B1860174C2268D36823F40073D360F4
:10094400606A01F00CFE14490A780132134B83FBF0
:10095400020303EB4303A2EB4303DBB20B700978FE
:1009640080230F4A52F821200021204600F06EFE19
:1009740050B9012000F0D2F8074B1A78094B53F80C
:10098400220000F0BFF8D2E7FFF75CFE003C014014
:100994005C0C00200C0D0020600C0020ABAAAA2ADD
:1009A400180000200000002082B000EB400000236B
:1009B400019304E000BF00BF019B01330193019B3D
:1009C4008342F7D302B0704710B51420FFF7ECFF51
:1009D400094CA36943F40043A3611420FFF7E4FF27
:1009E400A36943F00043A3611420FFF7DDFFA3696B
:1009F40043F40043A36110BD0008024010B504464F
:100A04003D4A936943F48043936110F0800F41D1D0
:100A14003A4A936943F00043936114F0400F40D085
:100A2400364A936943F48053936114F0200F3ED007
:100A3400334A936943F40073936114F0100F3CD06C
:100A44002F4A936943F480739361FFF7BDFF14F059
:100A5400080F38D0294A936943F40043936114F092
:100A6400040F36D0254A936943F48053936114F0FC
:100A7400020F34D0224A936943F40073936114F053
:100A8400010F32D01E4A936943F480739361FFF7D8
:100A94009BFF10BDA2F50062936943F40043936188
:100AA400BBE7164A936943F080539361BDE7144A48
:100AB400936943F000739361BFE7114A936943F06C
:100AC40080739361C1E70D4A936943F000439361D6
:100AD400C5E70A4A936943F080539361C7E7084A1C
:100AE400936943F000739361C9E7054A936943F03E
:100AF40080739361CBE700BF00080240000002400E
:100B04000004024038B50546002403E0FFF776FFF1
:100B14000134E4B2285D0028F8D138BD10B504468C
:100B24003F4A936943F08043936110F0800F45D1AD
:100B34003C4A936943F00043936114F0400F44D05E
:100B4400384A936943F48053936114F0200F42D0E0
:100B5400354A936943F40073936114F0100F40D045
:100B6400314A936943F480739361FFF72DFF14F0C6
:100B7400080F3CD02B4A936943F40043936114F06B
:100B8400040F3AD0274A936943F48053936114F0D5
:100B9400020F38D0244A936943F40073936114F02C
:100BA400010F36D0204A936943F480739361FFF7B1
:100BB4000BFF40F6B830FFF7F7FE10BDA2F5006258
:100BC400936943F400439361B7E7164A936943F08A
:100BD40080539361B9E7144A936943F000739361B6
:100BE400BBE7114A936943F080739361BDE70D4AF3
:100BF400936943F000439361C1E70A4A936943F060
:100C040080539361C3E7084A936943F00073936187
:100C1400C5E7054A936943F080739361C7E700BF52
:100C240000080240000002400004024008B5194BCD
:100C34001A6B42F001021A631A6B42F002021A6341
:100C44001A6B42F004021A63134A136843F0824396
:100C5400136002F58062136843F4A023136002F565
:100C64008062136843F0A043136047F23050FFF7EB
:100C74009BFE3320FFF752FF3220FFF74FFF0C207B
:100C8400FFF74CFF2820FFF749FF0120FFF746FF3D
:100C940008BD00BF0038024000000240FEE7FEE746
:100CA400FEE7FEE7FEE770477047704708B501F0BE
:100CB40013FE08BD08B5024801F064FC08BD00BF7E
:100CC400640C002082B0002100910B4B5A6C42F45A
:100CD40080425A645A6C02F480420092009A019154
:100CE4001A6C42F080521A641B6C03F08053019317
:100CF400019B02B0704700BF0038024010B582B0BB
:100D04000368B3F1804F04D01E4A93422CD002B042
:100D140010BD0446002300931B4A116C41F00101ED
:100D24001164126C02F001020092009A1748184AEA
:100D340002604FF0C06242608360C3604FF480621F
:100D440002614FF4805242614FF480428261C36178
:100D54000362436201F068FB18B90C4B63629C6345
:100D6400D5E7FFF76FFCF8E700230193064B1A6CF5
:100D740042F002021A641B6C03F002030193019B0C
:100D8400C5E700BF0004004000380240640C0020A6
:100D94008860024000B587B0002301930293039357
:100DA4000493059302680E4B9A4202D007B05DF893
:100DB40004FB002300930B4B1A6B42F002021A63EC
:100DC4001B6B03F002030093009B01230193022396
:100DD4000293059301A9044801F0B4F9E6E700BFC2
:100DE40000040040003802400004024030B4036AAA
:100DF400026A22F0010202624268846924F0730CE0
:100E04000C6844EA0C0423F0020C8B6843EA0C03DC
:100E1400114DA84203D005F58065A84205D123F001
:100E24000803CD682B4323F004030B4DA84203D0E1
:100E340005F58065A84207D122F440724D6945EA60
:100E4400020C8A6942EA0C02426084614A68426385
:100E5400036230BC704700BF0000014030B4036A35
:100E6400026A22F4807202624268C46924F0730C3C
:100E74000C6844EA0C0523F400738C6843EA0423E9
:100E8400114CA04203D004F58064A04206D123F49F
:100E94000063CC6843EA042323F480630A4CA04231
:100EA40003D004F58064A04207D122F440524C6977
:100EB40042EA04128C6942EA04124260C5614A683B
:100EC400C263036230BC70470000014030B4036A5F
:100ED400026A22F4805202624468C26922F4E64241
:100EE4000D6842EA052223F400538D6843EA053372
:100EF400094DA84203D005F58065A84204D124F425
:100F040080444D6944EA85144460C2614A680264BD
:100F1400036230BC704700BF0000014010B4036A94
:100F2400046A24F001040462846924F0F00C4CEA9D
:100F3400021223F00A030B43826103625DF8044B3F
:100F4400704710B4036A046A24F0100404628469CC
:100F540024F4704C4CEA023223F0A00343EA011358
:100F6400826103625DF8044B7047836823F0700369
:100F74000B4343F007038360704770477047704723
:100F840010B5846B636A83420ED0A36A834214D083
:100F9400E36A83421AD0236B834220D02046FFF7B2
:100FA400EEFF0023237710BD01232377C369002BB1
:100FB400F4D1012384F83E30F0E702232377C36998
:100FC400002BEBD1012384F83F30E7E70423237798
:100FD400C369002BE2D1012384F84030DEE7082303
:100FE4002377C369002BD9D1012384F84130D5E795
:100FF400704710B5846B636A83420BD0A36A834243
:1010040010D0E36A834210D0236B834204D10823B7
:10101400237701E0012323772046FFF7E9FF00232C
:10102400237710BD02232377F6E704232377F3E71E
:10103400704710B5846B636A83420CD0A36A834201
:1010440013D0E36A834216D0236B834219D0012361
:1010540084F83D3003E00123237784F83E302046B2
:10106400FFF7E6FF0023237710BD02232377012334
:1010740084F83F30F3E704232377012384F84030D6
:10108400EDE708232377012384F84130E7E70000E4
:101094000368324A904212D0B0F1804F0FD0A2F5CB
:1010A4007C4290420BD002F58062904207D002F558
:1010B4008062904203D002F57842904203D123F03B
:1010C40070034A681343254A90422AD0B0F1804FF6
:1010D40027D0A2F57C42904223D002F58062904250
:1010E4001FD002F5806290421BD002F578429042F4
:1010F40017D002F57052904213D002F580629042EC
:101104000FD002F5806290420BD0A2F59832904243
:1011140007D002F58062904203D002F580629042CB
:1011240003D123F44073CA68134323F080034A694C
:1011340013438A68C2620A688262084A904203D0F2
:1011440002F58062904201D10A690263026842F0AA
:101154000402026001224261036070470000014002
:1011640040B310B5044690F83D30F3B1022384F83F
:101174003D30214651F8040BFFF78AFF012384F820
:10118400463084F83E3084F83F3084F8403084F8A8
:10119400413084F8423084F8433084F8443084F891
:1011A400453084F83D30002010BD80F83C30FFF716
:1011B400A5FDDBE70120704740B310B5044690F865
:1011C4003D30F3B1022384F83D30214651F8040B3D
:1011D400FFF75EFF012384F8463084F83E3084F83C
:1011E4003F3084F8403084F8413084F8423084F849
:1011F400433084F8443084F8453084F83D3000208E
:1012040010BD80F83C30FFF7B8FEDBE701207047E3
:1012140040B310B5044690F83D30F3B1022384F88E
:101224003D30214651F8040BFFF732FF012384F8C7
:10123400463084F83E3084F83F3084F8403084F8F7
:10124400413084F8423084F8433084F8443084F8E0
:10125400453084F83D30002010BD80F83C30FFF765
:101264008DFEDBE70120704730B4036A026A22F086
:10127400100202624468826922F4E6420D6842EA7E
:10128400052223F020038D6843EA0513114DA8427B
:1012940003D005F58065A84206D123F08003CD680C
:1012A40043EA051323F040030A4DA84203D005F591
:1012B4008065A84207D124F440644D6944EA85045A
:1012C4008D6944EA8504446082614A6882630362EA
:1012D40030BC70470000014090F83C30012B28D00E
:1012E40010B50446012380F83C300C2A1CD8DFE8F2
:1012F40002F0071B1B1B0C1B1B1B111B1B1B1600CB
:101304000068FFF773FD00200FE00068FFF7ACFFF3
:1013140000200AE00068FFF7A1FD002005E0006856
:10132400FFF7D4FD002000E00120002384F83C30C6
:1013340010BD0220704738B590F83C30012B66D0C0
:1013440004460D46012380F83C300C2A5AD8DFE8C5
:1013540002F0075959591B595959305959594400E0
:101364000068FFF743FD2268936943F00803936123
:101374002268936923F004039361226893692969BD
:101384000B43936100203EE00068FFF76DFF226885
:10139400936943F4006393612268936923F480633F
:1013A400936122689369296943EA012393610020C8
:1013B40029E00068FFF752FD2268D36943F008036F
:1013C400D3612268D36923F00403D3612268D3690B
:1013D40029690B43D361002015E00068FFF776FD0F
:1013E4002268D36943F40063D3612268D36923F488
:1013F4008063D3612268D369296943EA0123D361F5
:10140400002000E00120002384F83C3038BD022095
:10141400FCE710B4846824F47F4C42EA03220A43B4
:1014240042EA0C0282605DF8044B704790F83C304D
:10143400012B78D010B50446012380F83C300223F8
:1014440080F83D300268936823F47F4323F07703E8
:1014540093600B68602B4CD023D8402B54D011D808
:10146400202B03D00AD80BB1102B05D119462068C4
:10147400FFF77BFD002028E0012026E0302BF5D08B
:10148400012022E0502B0AD1CA6849680068FFF79E
:1014940045FD50212068FFF768FD002015E001207C
:1014A40013E0B3F5805F3AD0B3F5005F14D0702B2E
:1014B40037D1CB684A6889680068FFF7AAFF2268B9
:1014C400936843F0770393600020012384F83D3050
:1014D400002384F83C3010BDCB684A6889680068F2
:1014E400FFF797FF2268936843F4804393600020DA
:1014F400EBE7CA6849680068FFF723FD60212068AC
:10150400FFF733FD0020E0E7CA6849680068FFF789
:1015140005FD40212068FFF728FD0020D5E70020C5
:10152400D3E70120D1E70220704701F01F014FF0FB
:10153400010C0CFA01FC036A23EA0C030362036A3C
:101544008A4013430362704710B5044608460029D5
:1015540042D194F83E30DBB2013B18BF0123002B8B
:101564006ED1002851D1022384F83E300122014675
:101574002068FFF7DAFF2368334A934203D002F569
:101584008062934203D15A6C42F400425A64236845
:101594002D4A934249D0B3F1804F46D0A2F57C4204
:1015A400934242D002F5806293423ED002F58062BB
:1015B40093423AD002F57842934236D002F5705203
:1015C400934232D0A2F5943293422ED01A6842F05C
:1015D40001021A60002032E0042908D008290DD045
:1015E40094F84130DBB2013B18BF0123B7E794F80C
:1015F4003F30DBB2013B18BF0123B0E794F8403021
:10160400DBB2013B18BF0123A9E7042805D0082851
:1016140007D0022384F84130A8E7022384F83F303E
:10162400A4E7022384F84030A0E79A6802F0070296
:10163400062A07D01A6842F001021A60002010BD81
:101644000120FCE70020FAE70000014070B50446E1
:1016540016460D46002977D190F83E00C0B2022804
:1016640014BF00200120002840F02181002D40F00B
:10167400878094F83E20D2B2012A14BF00220122AE
:10168400002A00F01681002E00F01581002B00F0D6
:101694001481002D40F09080022284F83E20626A7A
:1016A4008D49D163626A8D491164626A8C49D1643F
:1016B400226834323146606A00F01CFF002840F092
:1016C40000812268D36843F40073D3600122294661
:1016D4002068FFF72AFF2368824A934203D002F569
:1016E4008062934203D15A6C42F400425A642368E4
:1016F4007C4A934200F0D080B3F1804F00F0CC805C
:10170400A2F57C42934200F0C78002F580629342C6
:1017140000F0C28002F58062934200F0BD8002F5C1
:101724007842934200F0B88002F57052934200F080
:10173400B380A2F59432934200F0AE801A6842F06E
:1017440001021A600020B5E0042909D008290FD04D
:1017540090F84100C0B2022814BF0020012082E7A3
:1017640090F83F00C0B2022814BF002001207AE79D
:1017740090F84000C0B2022814BF0020012072E794
:10178400042D09D0082D0FD094F84120D2B2012A9B
:1017940014BF0022012273E794F83F20D2B2012A39
:1017A40014BF002201226BE794F84020D2B2012A30
:1017B40014BF0022012263E7042D23D0082D3BD05F
:1017C400022284F841200C2D79D801A252F825F088
:1017D400A3160008C3180008C3180008C31800089B
:1017E4000F180008C3180008C3180008C31800081D
:1017F40043180008C3180008C3180008C3180008D9
:1018040071180008022284F83F20A26A3249D16389
:10181400A26A32491164A26A3149D1642268383219
:101824003146A06A00F066FE00284CD12268D368D5
:1018340043F48063D36049E7022284F84020E26ADB
:101844002549D163E26A25491164E26A2449D164D5
:1018540022683C323146E06A00F04CFE002834D164
:101864002268D36843F40063D3602FE7226B1A49DC
:10187400D163226B19491164226B1949D16422681E
:1018840040323146206B00F035FE00BB2268D3683D
:1018940043F48053D36019E79A6802F00702062ADA
:1018A40017D01A6842F001021A60002002E00220F8
:1018B40000E0012070BD0120FCE70120FAE70120CF
:1018C400F8E70120F6E70120F4E70120F2E7012020
:1018D400F0E70020EEE700BF850F0008F70F0008CF
:1018E400371000080000014010B5044608460029DE
:1018F40042D194F83E30DBB2013B18BF0123002BE8
:101904006ED1002851D1022384F83E3001220146D1
:101914002068FFF70AFE2368334A934203D002F596
:101924008062934203D15A6C42F400425A642368A1
:101934002D4A934249D0B3F1804F46D0A2F57C4260
:10194400934242D002F5806293423ED002F5806217
:1019540093423AD002F57842934236D002F570525F
:10196400934232D0A2F5943293422ED01A6842F0B8
:1019740001021A60002032E0042908D008290DD0A1
:1019840094F84130DBB2013B18BF0123B7E794F868
:101994003F30DBB2013B18BF0123B0E794F840307D
:1019A400DBB2013B18BF0123A9E7042805D00828AE
:1019B40007D0022384F84130A8E7022384F83F309B
:1019C400A4E7022384F84030A0E79A6802F00702F3
:1019D400062A07D01A6842F001021A60002010BDDE
:1019E4000120FCE70020FAE70000014090F83C20C9
:1019F400012A3DD010B40346012280F83C20022283
:101A040080F83D2002685068946820F0700C0868E3
:101A140040EA0C0050601A68164882421AD0B2F1AB
:101A2400804F17D0A0F57C40824213D000F580602F
:101A340082420FD000F5806082420BD000F57840DE
:101A4400824207D000F57050824203D0A0F5943052
:101A5400824204D124F08004496821439160012228
:101A640083F83D20002083F83C005DF8044B704768
:101A74000220704700000140002800F09B8070B5F0
:101A84000D4604464F4B1B6803F00F038B4208D2EC
:101A9400CBB24C4A1370136803F00F038B4240F02F
:101AA4008B80236813F0020F17D013F0040F04D0B7
:101AB400454A936843F4E0539360236813F0080F96
:101AC40004D0414A936843F4604393603E4A936868
:101AD40023F0F003A1680B439360236813F0010F14
:101AE40032D06368012B21D09A1E012A25D9364AA7
:101AF400126812F0020F61D033498A6822F003029F
:101B040013438B6000F0F4FE06462F4B9B6803F0F2
:101B14000C036268B3EB820F16D000F0E9FE801B61
:101B240041F288339842F0D9032042E0264A1268F1
:101B340012F4003FE0D101203BE0234A126812F086
:101B4400007FD9D1012034E01E4B1B6803F00F0342
:101B5400AB4207D9EAB21B4B1A701B6803F00F03A0
:101B6400AB422DD1236813F0040F06D0164A9368B4
:101B740023F4E053E1680B439360236813F0080FE8
:101B840007D0114A936823F46043216943EAC103EF
:101B9400936000F021F80C4B9B68C3F303130B4ACA
:101BA400D35CD8400A4B18600A4B186800F054FE06
:101BB400002070BD012070470120FAE70120F8E7FA
:101BC4000120F6E7003C024000380240402A0008A9
:101BD4003C0C0020380C002008B5464B9B6803F0F1
:101BE4000C03082B05D00C2B43D0042B7FD1424887
:101BF40019E0404B5A6802F03F025B6813F4800F0F
:101C040012D03C4B5968C1F388113B480023A1FB17
:101C14000001FEF7F5FA374B5B68C3F30143013368
:101C24005B00B0FBF3F008BD324B5868C0F388107A
:101C34004FEA401CBCEB000C6EEB0E0E4FEA8E1309
:101C440043EA9C634FEA8C11B1EB0C0163EB0E0386
:101C5400DB0043EA5173C90011EB000C43F10003AC
:101C6400990200234FEA8C2041EA9C51FEF7C8FAFE
:101C7400D1E7204B5A6802F03F025B6813F4800FEF
:101C840010D01C4B5968C1F388111B480023A1FBD9
:101C94000001FEF7B5FA174B5B68C3F30273B0FBA0
:101CA400F3F0C0E7134B5868C0F388104FEA401CA8
:101CB400BCEB000C6EEB0E0E4FEA8E1343EA9C63F2
:101CC4004FEA8C11B1EB0C0163EB0E03DB0043EA2A
:101CD4005173C90011EB000C43F100039902002376
:101CE4004FEA8C2041EA9C51FEF78AFAD3E7034875
:101CF40099E700BF0038024040787D010024F400D9
:101D0400002800F0018270B582B00446036813F025
:101D1400010F41D0994B9B6803F00C03042B32D084
:101D2400964B9B6803F00C03082B27D0934B9B68BE
:101D340003F00C030C2B59D06368B3F5803F5BD0E0
:101D4400B3F5A02F5ED08D4B1A6822F480321A604E
:101D54001A6822F480221A606368002B5CD000F0B9
:101D6400C7FD0546854B1B6813F4003F14D100F0F2
:101D7400BFFD401B6428F5D90320CCE17F4B5B6891
:101D840013F4800FD2D07D4B1B6813F4003F03D0B3
:101D94006368002B00F0BA81236813F0020F60D04F
:101DA400764B9B6813F00C0F4AD0744B9B6803F07E
:101DB4000C03082B3FD0714B9B6803F00C030C2BD6
:101DC40069D0E368002B75D06D4B01221A6000F0D6
:101DD4008FFD0546694B1B6813F0020F61D100F0BB
:101DE40087FD401B0228F5D9032094E1634B5B680F
:101DF40013F4800FA0D0C6E7604A136843F480331D
:101E04001360A9E75D4B1A6842F480221A601A68CD
:101E140042F480321A609FE700F06AFD0546574B92
:101E24001B6813F4003FB7D000F062FD401B642828
:101E3400F5D903206FE1514B5B6813F4800FBAD1DD
:101E44004E4B1B6813F0020F03D0E368012B40F0E4
:101E54005F814A4A136823F0F803216943EAC10306
:101E64001360236813F0080F49D06369002B33D043
:101E7400434B0122C3F8802E00F03AFD05463F4B48
:101E84005B6F13F0020F3AD100F032FD401B0228C1
:101E9400F5D903203FE1394B5B6813F4800F90D1EF
:101EA400CEE7364A136823F0F803216943EAC103F5
:101EB4001360D6E7324B00221A6000F019FD054684
:101EC4002E4B1B6813F0020FCBD000F011FD401B0A
:101ED4000228F5D903201EE1294B0022C3F8802EE5
:101EE40000F006FD0546254B5B6F13F0020F06D08C
:101EF40000F0FEFC401B0228F5D903200BE1236807
:101F040013F0040F76D01D4B1B6C13F0805F33D19C
:101F140000230193194B1A6C42F080521A641B6C13
:101F240003F080530193019B0125164B1B6813F4A6
:101F3400807F29D0A368012B3AD0052B3ED00F4BCC
:101F44001A6F22F001021A671A6F22F004021A674C
:101F5400A368002B3CD000F0CBFC0646074B1B6F5C
:101F640013F0020F45D100F0C3FC801B41F288330B
:101F74009842F3D90320CEE00025D6E7003802408A
:101F840000004742007000406B4A136843F48073BA
:101F9400136000F0ADFC0646674B1B6813F4807FAA
:101FA400C8D100F0A5FC801B0228F5D90320B2E0BB
:101FB400624A136F43F001031367C9E75F4B1A6F5B
:101FC40042F004021A671A6F42F001021A67BFE76F
:101FD40000F08EFC0646594B1B6F13F0020F08D01D
:101FE40000F086FC801B41F288339842F3D9032029
:101FF40091E0EDB9A369002B00F08C804F4A926800
:1020040002F00C02082A54D0022B17D04C4B0022A9
:102014001A6600F06DFC0446484B1B6813F0007F01
:1020240045D000F065FC001B0228F5D9032072E0BE
:10203400424A136C23F080531364DBE7404B0022C5
:102044001A6600F055FC05463C4B1B6813F0007FF4
:1020540006D000F04DFC401B0228F5D903205AE0BD
:10206400E369226A1343626A43EA8213A26A52084A
:10207400013A43EA0243E26A43EA0263226B43EA17
:1020840002732E4A53602E4B01221A6600F030FC74
:1020940004462A4B1B6813F0007F06D100F028FC8D
:1020A400001B0228F5D9032035E0002033E000208E
:1020B40031E0012B31D0214B5B6803F48001E269EC
:1020C40091422CD103F03F02216A8A4229D1616AEC
:1020D40047F6C0721A40B2EB811F24D103F4403199
:1020E400A26A5208013AB1EB024F1ED103F07062AA
:1020F400E16AB2EB016F1AD103F0E043226BB3EB58
:10210400027F16D1002006E001207047012002E082
:10211400012000E0002002B070BD0120FBE7012097
:10212400F9E70120F7E70120F5E70120F3E70120B3
:10213400F1E70120EFE700BF0070004000380240E3
:102144000000474200230F2B00F2E38070B582B0F9
:1021540065E085684FEA430E032404FA0EF425EA89
:102164000405CC6804FA0EF42C438460446824EA21
:1021740002044A68C2F300129A40224342605CE0BF
:10218400DC08083450F8242003F00705AD004FF0B4
:102194000F0E0EFA05FE22EA0E0E0A69AA4042EA62
:1021A4000E0240F824205CE0062200E0002202FA3D
:1021B4000EF22A430234574D45F82420564A9468B7
:1021C4006FEA0C0224EA0C054E6816F4801F01D055
:1021D4004CEA0405504CA560E46802EA04054E6824
:1021E40016F4001F01D04CEA04054B4CE56064680A
:1021F40002EA04054E6816F4003F01D04CEA0405D7
:10220400454C6560246822404D6815F4803F01D038
:102214004CEA0402404C226001330F2B77D8012290
:102224009A400C6804EA020C32EA0404F4D14C68C3
:1022340004F00304013C012C8BD94A6802F0030228
:10224400032A09D0C4685D000322AA4024EA0204D8
:102254008A68AA402243C2604A6802F00302022A42
:102264008ED004684FEA430E032202FA0EF224EAE7
:1022740002044A6802F0030202FA0EF222430260E8
:102284004A6812F4403FC7D000220192234A546C9A
:1022940044F480445464526C02F480420192019AE2
:1022A4009C08A51C1B4A52F8255003F0030E4FEA64
:1022B4008E0E0F2202FA0EF225EA0205184A904207
:1022C4003FF474AF02F58062904216D002F580624A
:1022D400904214D002F58062904212D002F58062DE
:1022E400904210D002F5806290420ED002F58062D6
:1022F40090423FF459AF072259E7012257E70222DF
:1023040055E7032253E7042251E705224FE702B0C1
:1023140070BD704700380140003C01400038024065
:10232400000002400AB1816170470904816170476D
:1023340030B405682C6824F480242C60046863603D
:102344008368402B05D0036899600368DA6030BC69
:10235400704703689A600368D960F8E710B40368AB
:10236400D9B210390A4AA2FB01421209094CA25CF3
:10237400C2655F2907D96FF3090304338365806D50
:102384005DF8044B70476FF309038365F7E700BFFB
:10239400ABAAAAAA382A0008836A826992B9012BD7
:1023A4000AD0022B02D00BB100207047C36A13F08D
:1023B400807F28D100207047C36AB3F1C07F24D046
:1023C40000207047B2F5005F09D0022B25D9032BFA
:1023D40025D1C36A13F0807F23D100207047032BDB
:1023E40003D8DFE803F01404140A00207047C36A1A
:1023F40013F0807F0DD100207047C36AB3F1C07F12
:1024040009D0002070470120704701207047012047
:102414007047012070470120704701207047002059
:10242400704701207047000070B5044600F060FA60
:10243400002C5BD00546022384F83530002384F851
:1024440034302268136823F00103136023681A6888
:1024540012F0010F0AD000F04BFA431B052BF5D9FB
:1024640020236365032084F8350070BD1A68204971
:1024740011406268A0680243E06802432069024395
:1024840060690243A0690243E0690243206A02438F
:102494000A43616A04291ED01A602668756925F00A
:1024A4000705636A1D43042B07D1A36A1D43E36A2E
:1024B4001BB12046FFF770FF90B975612046FFF706
:1024C4004DFFE26D3F23934083600020606501234C
:1024D40084F83530C9E7E16A206B01430A43DBE73E
:1024E40040236365012084F83500BEE70120BCE782
:1024F4003F8010F038B50446856D90F8340001280B
:102504002BD0012084F8340094F83500C0B201289F
:1025140004D0002384F83430022038BD022084F82B
:102524003500002060652046FFF702FFE26D3F237F
:102534009340AB602268136843F016031360236C66
:1025440023B12268136843F00803136022681368F8
:1025540043F0010313600020DFE70220DDE790F879
:102564003530DBB2022B03D0802343650120704752
:10257400052380F835300268136823F001031360E3
:1025840000207047F0B583B0044600230193724BDA
:102594001D68724BA3FB0535AD0A876D3E68C26D9D
:1025A40008239340334210D003681A6812F0040FD2
:1025B4000BD01A6822F004021A60C26D08239340FB
:1025C400BB60436D43F001034365E26D0123934017
:1025D400334209D02268526912F0800F04D0BB60E4
:1025E400636D43F002036365E26D04239340334259
:1025F40009D02268126812F0020F04D0BB60636D28
:1026040043F004036365E26D10239340334224D006
:102614002268126812F0080F1FD0BB6023681A6882
:1026240012F4802F0DD01B6813F4002F04D1236CF7
:102634009BB12046984710E0A36C73B1204698479D
:102644000BE01A6812F4807F03D11A6822F00802A2
:102654001A60236C0BB120469847E26D2023934007
:10266400334255D02268126812F0100F50D0BB606C
:1026740094F83530DBB2052B0ED023681A6812F4B7
:10268400802F33D01B6813F4002F2AD1636C002BE6
:102694003ED0204698473BE02268136823F0160397
:1026A40013602268536923F080035361236CA3B140
:1026B4002268136823F008031360E26D3F239340FC
:1026C400BB60012384F83530002384F83430236D53
:1026D400002B3FD0204698473CE0A36C002BE7D169
:1026E400EBE7E36BA3B12046984711E01A6812F4B4
:1026F400807F09D11A6822F010021A60012384F83D
:102704003530002384F83430E36B0BB1204698470E
:10271400636DFBB1636D13F0010F17D0052384F8CB
:1027240035302268136823F001031360019B0133E1
:102734000193AB4204D823681B6813F0010FF5D151
:10274400012384F83530002384F83430E36C0BB172
:102754002046984703B0F0BD3C0C0020B5814E1BC9
:10276400002807DB00F01F02400901239340024ABE
:1027740042F82030704700BF00E100E0002808DB89
:102784000901C9B200F1604000F5614080F800130E
:10279400704700F00F000901C9B2014B195470478A
:1027A40014ED00E000B500F00700C0F1070CBCF127
:1027B400040F28BF4FF0040C031D062B0FD9C31EB2
:1027C4004FF0FF3E0EFA0CF021EA000199400EFA98
:1027D40003FE22EA0E0241EA02005DF804FB002334
:1027E400EEE70000074AD36823F4E0631B041B0CE4
:1027F400000200F4E060034343F0BF6343F400339A
:10280400D360704700ED00E010B50446054BD8686E
:10281400C0F30220FFF7C6FF01462046FFF7AEFFD4
:1028240010BD00BF00ED00E008B5FFF799FF08BD3B
:102834000138B0F1807F0BD24FF0E0235861054A94
:10284400F02182F823100020986107221A61704752
:102854000120704700ED00E010B504460E4B1A78D5
:102864004FF47A73B3FBF2F30C4A1068B0FBF3F045
:10287400FFF7DEFF68B90F2C01D901200AE000221E
:1028840021464FF0FF30FFF7BFFF054B1C600020CF
:1028940000E0012010BD00BF340C00203C0C0020DF
:1028A400380C002008B50B4B1A6842F400721A6009
:1028B4001A6842F480621A601A6842F480721A60DC
:1028C4000320FFF78FFF0F20FFF7C6FFFEF7FAF98B
:1028D400002008BD003C0240034A1168034B1B78EA
:1028E4000B441360704700BF540D0020340C0020CB
:1028F400014B1868704700BF540D002038B50446DA
:10290400FFF7F6FF0546B4F1FF3F02D0044B1B78F6
:102914001C44FFF7EDFF401BA042FAD338BD00BFB3
:10292400340C0020034AD2F8883043F47003C2F810
:102934008830704700ED00E0DFF834D0FFF7F2FF95
:102944000C480D490D4A002302E0D458C450043306
:10295400C4188C42F9D30A4A0A4C002301E01360DC
:102964000432A242FBD300F019F8FDF78DFF704743
:102974000000022000000020400C0020602A000813
:10298400400C0020580D0020FEE702440346934209
:1029940000D1704703F8011BF9E7000070B50D4D35
:1029A4000D4C641BA4100026A64209D10B4D0C4CFF
:1029B40000F018F8641BA4100026A64205D170BDCF
:1029C40055F8043B98470136EEE755F8043B984721
:1029D4000136F2E7582A0008582A0008582A000845
:1029E4005C2A0008F8B500BFF8BC08BC9E467047D6
:0C29F400F8B500BFF8BC08BC9E46704758
:102A000053696E6500000000536177746F6F7468DE
:102A100000000000547269616E676C650000000080
:102A20005069616E6F000000477569746172000043
:102A30004472756D000000000006101600061016A6
:102A4000000000000000000001020304060708095E
:082A5000E4D7FF7F0100000044
:042A5800E901000888
:042A5C00C5010008A8
:102A6000002A0008082A0008142A0008202A000862
:102A7000282A0008302A0008340A002034080020E0
:102A800034060020340400203402002034000020EA
:102A90007D000000FF070000440D00004807000013
:102AA0003E0800000F080000480D00006507000008
:102AB0008D0700002608000060080000F4070000F1
:102AC000EE070000F70700009D07000086050000E4
:102AD000380700002B080000F0070000FC0700008A
:102AE0000B080000000800002D080000FC07000093
:102AF000E40700002E0800000B0700001808000083
:102B0000FD0700007D080000E1070000A30C0000A5
:102B1000FC04000087060000910800008409000002
:102B2000380800008B0700000E080000EC070000CA
:102B3000F0070000FF0F000082070000F30700000D
:102B4000FA070000C6090000440900001C07000045
:102B5000CC070000EC08000018080000E2070000A5
:102B6000030800009F020000790900001B08000014
:102B70001408000011000000BF080000FA07000060
:102B8000E70700009008000004080000560B000052
:102B900052090000E90F0000D9070000ED0800000D
:102BA000F6070000D6090000970A000000080000A0
:102BB000300800005D060000D10700002608000074
:102BC000FB070000F5090000660700000D08000083
:102BD0001C080000D107000007080000FB070000E8
:102BE0000108000032080000FF0700001108000083
:102BF000FF0700006B0B000017080000E107000052
:102C000020080000E207000001080000270700007C
:102C1000DE07000045030000F7080000BA070000C7
:102C2000F8070000BC070000F40700003A080000A5
:102C3000FA0700006B0600000708000012080000F9
:102C4000F0070000020800008A0900006108000087
:102C5000AA0800004E080000F0070000F607000078
:102C6000F50600006A080000890900005408000009
:102C7000FF0F000066080000DC070000F4070000FA
:102C80004F060000BD07000043010000DD09000001
:102C9000FF070000FF0700003A09000038090000A4
:102CA0004B0800003108000045070000290700001C
:102CB000DF070000FE0500002C08000020080000CF
:102CC00004080000270800001B080000650700003A
:102CD000F4070000FB070000EB070000A906000056
:102CE000C50900007C07000068070000A209000079
:102CF000B7080000EF06000004080000DF0700002E
:102D00000E080000F4070000CA070000AC0700002E
:102D10000608000004080000320800004007000018
:102D200065080000420700004F080000D3070000BC
:102D3000D6060000C9080000E807000008080000E7
:102D400004080000100800008D0700006008000063
:102D5000F907000054070000D607000087080000AC
:102D6000D90700008F0800005F080000630700001B
:102D7000D5070000620800005B0800002F08000073
:102D8000230700007308000031080000C90A000092
:102D9000B60800003A080000B6080000DD08000090
:102DA000C70800005A080000470800003706000066
:102DB0009606000011080000F80700001F08000038
:102DC0000F080000DC080000FC070000F00700000E
:102DD00008080000750800008408000009070000CA
:102DE000510800001F080000C90600004E0800003E
:102DF000590700002708000035080000FE07000002
:102E0000F1070000A7070000610700004308000069
:102E1000FD070000F1080000B3070000C40800002F
:102E2000C0070000EE070000D5070000D809000029
:102E300078090000DB07000004080000F20700002A
:102E4000F90700004508000090070000FD0700009A
:102E5000030800008C070000EB0700006D0800006D
:102E600067070000FA08000098070000A5080000A6
:102E700076060000390800003E07000052090000F5
:102E800071070000680600003A0A00008D07000084
:102E900000080000FF07000087080000C0070000CE
:102EA000320800000D08000028080000F6070000A6
:102EB0006E080000310800006908000024080000C6
:102EC00006080000E00700001D0900000B080000D4
:102ED000E5060000EB070000FD070000B207000058
:102EE000070800000F080000030800002F0600007C
:102EF000E60700001E090000FC070000440B00006C
:102F00009C060000DF06000033070000C208000036
:102F100093080000FB05000073080000B1070000E3
:102F20000D080000C307000028080000C5060000C7
:102F3000A00700008E07000035080000CC08000044
:102F400084070000CD08000089070000380A00004F
:102F5000EE070000310800000F080000C107000064
:102F60000F080000E8070000F5070000020B000052
:102F700098070000590900004B070000D007000027
:102F80009D070000C0050000770700009B060000B9
:102F9000F3070000F2060000160800005F080000BA
:102FA000FF070000DF070000E5070000B60600008D
:102FB000690800006E0700002608000002070000F4
:102FC0009809000099080000F00700003809000087
:102FD0007F080000EB070000FB070000D40700009B
:102FE00018080000F2070000F90700008B08000035
:102FF00005080000290800008807000033070000CA
:10300000F2070000DB070000B2080000D90700004B
:103010003B0800002B090000040800001D08000008
:10302000F607000017080000E7070000DA060000B6
:1030300082070000C8070000CC07000072080000EB
:1030400024080000F4070000CF0700002D0700004F
:1030500066080000D50700001F080000CD0700002B
:1030600018080000EF0700000C0800009607000099
:103070007707000044060000F40600001D08000069
:1030800008080000D1070000920700002E08000089
:10309000FF070000000000007F000000FF000000AC
:1030A0007F010000FF0100007F020000FF0200001E
:1030B0007F030000FF0300007F040000FF04000006
:1030C0007F050000FF0500007F060000FF060000EE
:1030D0007F070000FF0700007F080000FF080000D6
:1030E0007F090000FF0900007F0A0000FF0A0000BE
:1030F0007F0B0000FF0B00007F0C0000FF0C0000A6
:103100007F0D0000FF0D00007F0E0000FF0E00008D
:103110007F0F0000FF0F00007E100000FE10000077
:103120007E110000FE1100007E120000FE12000061
:103130007E130000FE1300007E140000FE14000049
:103140007E150000FE1500007E160000FE16000031
:103150007E170000FE1700007E180000FE18000019
:103160007E190000FE1900007E1A0000FE1A000001
:103170007E1B0000FE1B00007E1C0000FE1C0000E9
:103180007E1D0000FE1D00007E1E0000FE1E0000D1
:103190007E1F0000FE1F00007E1F0000FE1E0000BC
:1031A0007E1E0000FE1D00007E1D0000FE1C0000B3
:1031B0007E1C0000FE1B00007E1B0000FE1A0000AB
:1031C0007E1A0000FE1900007E190000FE180000A3
:1031D0007E180000FE1700007E170000FE1600009B
:1031E0007E160000FE1500007E150000FE14000093
:1031F0007E140000FE1300007E130000FE1200008B
:103200007E120000FE1100007E110000FE10000082
:103210007E100000FF0F00007F0F0000FF0E000077
:103220007F0E0000FF0D00007F0D0000FF0C00006E
:103230007F0C0000FF0B00007F0B0000FF0A000066
:103240007F0A0000FF0900007F090000FF0800005E
:103250007F080000FF0700007F070000FF06000056
:103260007F060000FF0500007F050000FF0400004E
:103270007F040000FF0300007F030000FF02000046
:103280007F020000FF0100007F010000FF0000003E
:103290007F0000000000000020000000400000004F
:1032A0006000000080000000A1000000C1000000DC
:1032B000E1000000010100002201000042010000C5
:1032C0006201000082010000A3010000C3010000B0
:1032D000E301000003020000240200004402000099
:1032E0006402000084020000A5020000C502000084
:1032F000E50200000503000026030000460300006D
:103300006603000086030000A7030000C703000057
:10331000E703000007040000280400004804000040
:103320006804000088040000A9040000C90400002B
:10333000E9040000090500002A0500004A05000014
:103340006A0500008A050000AA050000CB05000000
:10335000EB0500000B0600002B0600004C060000E9
:103360006C0600008C060000AC060000CD060000D4
:10337000ED0600000D0700002D0700004E070000BD
:103380006E0700008E070000AE070000CF070000A8
:10339000EF0700000F0800002F0800005008000091
:1033A0007008000090080000B0080000D10800007C
:1033B000F108000011090000310900005209000065
:1033C0007209000092090000B2090000D309000050
:1033D000F3090000130A0000330A0000540A000039
:1033E000740A0000940A0000B40A0000D40A000025
:1033F000F50A0000150B0000350B0000550B00000E
:10340000760B0000960B0000B60B0000D60B0000F8
:10341000F70B0000170C0000370C0000570C0000E1
:10342000780C0000980C0000B80C0000D80C0000CC
:10343000F90C0000190D0000390D0000590D0000B5
:103440007A0D00009A0D0000BA0D0000DA0D0000A0
:10345000FB0D00001B0E00003B0E00005B0E000089
:103460007C0E00009C0E0000BC0E0000DC0E000074
:10347000FD0E00001D0F00003D0F00005D0F00005D
:103480007E0F00009E0F0000BE0F0000DE0F000048
:10349000FF0F0000FF07000063080000C8080000DD
:1034A0002B0900008E090000F1090000510A0000FC
:1034B000B10A00000F0B00006A0B0000C40B0000F3
:1034C0001C0C0000710C0000C30C0000120D000069
:1034D0005E0D0000A70D0000EC0D00002E0E000098
:1034E0006C0E0000A50E0000DB0E00000D0F0000AA
:1034F0003A0F0000630F0000870F0000A60F0000C6
:10350000C10F0000D70F0000E80F0000F50F00000A
:10351000FC0F0000FF0F0000FC0F0000F50F000083
:10352000E80F0000D70F0000C10F0000A60F000039
:10353000870F0000630F00003A0F00000D0F00001E
:10354000DB0E0000A50E00006C0E00002E0E000029
:10355000EC0D0000A70D00005E0D0000120D000034
:10356000C30C0000710C00001C0C0000C40B000018
:103570006A0B00000F0B0000B10A0000510A0000A6
:10358000F10900008E0900002B090000C8080000A6
:1035900063080000FF0700009B07000036070000DB
:1035A000D3060000700600000D060000AD05000007
:1035B0004D050000EF040000940400003A040000F0
:1035C000E20300008D0300003B030000EC0200005A
:1035D000A00200005702000012020000D00100000B
:1035E000920100005901000023010000F1000000D9
:1035F000C40000009B00000077000000580000009D
:103600003D00000027000000160000000900000037
:10361000020000000000000002000000090000009D
:1036200016000000270000003D00000058000000C8
:10363000770000009B000000C4000000F1000000C3
:10364000230100005901000092010000D001000098
:103650001202000057020000A0020000EC0200006D
:103660003B0300008D030000E20300003A04000069
:1036700094040000EF0400004D050000AD050000BB
:103680000D06000070060000D3060000360700009B
:103690009B07000001000000100000000024F4005F
:040000050800293D89
:00000001FF
